{
  "contractName": "eVoting",
  "abi": [
    {
      "inputs": [],
      "stateMutability": "nonpayable",
      "type": "constructor"
    },
    {
      "anonymous": false,
      "inputs": [
        {
          "indexed": false,
          "internalType": "string",
          "name": "_name",
          "type": "string"
        }
      ],
      "name": "CreatedUser",
      "type": "event"
    },
    {
      "inputs": [
        {
          "internalType": "uint256",
          "name": "",
          "type": "uint256"
        }
      ],
      "name": "party",
      "outputs": [
        {
          "internalType": "string",
          "name": "name",
          "type": "string"
        },
        {
          "internalType": "int256",
          "name": "votes",
          "type": "int256"
        }
      ],
      "stateMutability": "view",
      "type": "function",
      "constant": true
    },
    {
      "inputs": [
        {
          "internalType": "address",
          "name": "",
          "type": "address"
        }
      ],
      "name": "users",
      "outputs": [
        {
          "internalType": "address",
          "name": "id",
          "type": "address"
        },
        {
          "internalType": "string",
          "name": "name",
          "type": "string"
        },
        {
          "internalType": "bool",
          "name": "status",
          "type": "bool"
        }
      ],
      "stateMutability": "view",
      "type": "function",
      "constant": true
    },
    {
      "inputs": [
        {
          "internalType": "uint256",
          "name": "number",
          "type": "uint256"
        },
        {
          "internalType": "string[]",
          "name": "parties",
          "type": "string[]"
        }
      ],
      "name": "createParty",
      "outputs": [],
      "stateMutability": "nonpayable",
      "type": "function"
    },
    {
      "inputs": [],
      "name": "getVotings",
      "outputs": [
        {
          "components": [
            {
              "internalType": "string",
              "name": "name",
              "type": "string"
            },
            {
              "internalType": "int256",
              "name": "votes",
              "type": "int256"
            }
          ],
          "internalType": "struct eVoting.Parties[]",
          "name": "",
          "type": "tuple[]"
        }
      ],
      "stateMutability": "view",
      "type": "function",
      "constant": true
    },
    {
      "inputs": [
        {
          "internalType": "int256",
          "name": "status",
          "type": "int256"
        }
      ],
      "name": "statusVoting",
      "outputs": [],
      "stateMutability": "nonpayable",
      "type": "function"
    },
    {
      "inputs": [
        {
          "internalType": "string",
          "name": "_name",
          "type": "string"
        }
      ],
      "name": "createUser",
      "outputs": [],
      "stateMutability": "payable",
      "type": "function",
      "payable": true
    },
    {
      "inputs": [
        {
          "internalType": "uint256",
          "name": "partyNumber",
          "type": "uint256"
        }
      ],
      "name": "userVoting",
      "outputs": [],
      "stateMutability": "payable",
      "type": "function",
      "payable": true
    }
  ],
  "bytecode": "0x60806040526000600160146101000a81548160ff02191690836002811115610050577f4e487b7100000000000000000000000000000000000000000000000000000000600052602160045260246000fd5b021790555034801561006157600080fd5b5033600160006101000a81548173ffffffffffffffffffffffffffffffffffffffff021916908373ffffffffffffffffffffffffffffffffffffffff160217905550611430806100b26000396000f3fe60806040526004361061006f5760003560e01c8063507ffba51161004e578063507ffba5146100f957806351d00aa214610115578063a87430ba1461013e578063da91d5ca1461017d5761006f565b8062430bb91461007457806305c1112d14610090578063314fd68f146100bb575b600080fd5b61008e60048036038101906100899190610d09565b6101a6565b005b34801561009c57600080fd5b506100a56103ff565b6040516100b29190610ff8565b60405180910390f35b3480156100c757600080fd5b506100e260048036038101906100dd9190610d09565b61058a565b6040516100f092919061103c565b60405180910390f35b610113600480360381019061010e9190610cc8565b610646565b005b34801561012157600080fd5b5061013c60048036038101906101379190610c9f565b61077a565b005b34801561014a57600080fd5b5061016560048036038101906101609190610c76565b610869565b60405161017493929190610fba565b60405180910390f35b34801561018957600080fd5b506101a4600480360381019061019f9190610d32565b610948565b005b600073ffffffffffffffffffffffffffffffffffffffff16600260003373ffffffffffffffffffffffffffffffffffffffff1673ffffffffffffffffffffffffffffffffffffffff16815260200190815260200160002060000160009054906101000a900473ffffffffffffffffffffffffffffffffffffffff1673ffffffffffffffffffffffffffffffffffffffff161415610278576040517f08c379a000000000000000000000000000000000000000000000000000000000815260040161026f9061106c565b60405180910390fd5b600160028111156102b2577f4e487b7100000000000000000000000000000000000000000000000000000000600052602160045260246000fd5b600160149054906101000a900460ff1660028111156102fa577f4e487b7100000000000000000000000000000000000000000000000000000000600052602160045260246000fd5b1461033a576040517f08c379a00000000000000000000000000000000000000000000000000000000081526004016103319061108c565b60405180910390fd5b60008181548110610374577f4e487b7100000000000000000000000000000000000000000000000000000000600052603260045260246000fd5b9060005260206000209060020201600101600081548092919061039690611285565b91905055506000600260003373ffffffffffffffffffffffffffffffffffffffff1673ffffffffffffffffffffffffffffffffffffffff168152602001908152602001600020905060018160020160006101000a81548160ff0219169083151502179055505050565b6060600160009054906101000a900473ffffffffffffffffffffffffffffffffffffffff1673ffffffffffffffffffffffffffffffffffffffff163373ffffffffffffffffffffffffffffffffffffffff1614610491576040517f08c379a0000000000000000000000000000000000000000000000000000000008152600401610488906110ac565b60405180910390fd5b6000805480602002602001604051908101604052809291908181526020016000905b8282101561058157838290600052602060002090600202016040518060400160405290816000820180546104e690611253565b80601f016020809104026020016040519081016040528092919081815260200182805461051290611253565b801561055f5780601f106105345761010080835404028352916020019161055f565b820191906000526020600020905b81548152906001019060200180831161054257829003601f168201915b50505050508152602001600182015481525050815260200190600101906104b3565b50505050905090565b6000818154811061059a57600080fd5b90600052602060002090600202016000915090508060000180546105bd90611253565b80601f01602080910402602001604051908101604052809291908181526020018280546105e990611253565b80156106365780601f1061060b57610100808354040283529160200191610636565b820191906000526020600020905b81548152906001019060200180831161061957829003601f168201915b5050505050908060010154905082565b60405180606001604052803373ffffffffffffffffffffffffffffffffffffffff16815260200182815260200160001515815250600260003373ffffffffffffffffffffffffffffffffffffffff1673ffffffffffffffffffffffffffffffffffffffff16815260200190815260200160002060008201518160000160006101000a81548173ffffffffffffffffffffffffffffffffffffffff021916908373ffffffffffffffffffffffffffffffffffffffff160217905550602082015181600101908051906020019061071c929190610aa5565b5060408201518160020160006101000a81548160ff0219169083151502179055509050507f548540906c28f1a71d7c88fbf873ef92b162778570a20470fc8b5db027489f338160405161076f919061101a565b60405180910390a150565b60018114156107d85760018060146101000a81548160ff021916908360028111156107ce577f4e487b7100000000000000000000000000000000000000000000000000000000600052602160045260246000fd5b0217905550610866565b60008114156108655760028081111561081a577f4e487b7100000000000000000000000000000000000000000000000000000000600052602160045260246000fd5b600160149054906101000a900460ff166002811115610862577f4e487b7100000000000000000000000000000000000000000000000000000000600052602160045260246000fd5b50505b5b50565b60026020528060005260406000206000915090508060000160009054906101000a900473ffffffffffffffffffffffffffffffffffffffff16908060010180546108b290611253565b80601f01602080910402602001604051908101604052809291908181526020018280546108de90611253565b801561092b5780601f106109005761010080835404028352916020019161092b565b820191906000526020600020905b81548152906001019060200180831161090e57829003601f168201915b5050505050908060020160009054906101000a900460ff16905083565b600160009054906101000a900473ffffffffffffffffffffffffffffffffffffffff1673ffffffffffffffffffffffffffffffffffffffff163373ffffffffffffffffffffffffffffffffffffffff16146109d8576040517f08c379a00000000000000000000000000000000000000000000000000000000081526004016109cf906110ac565b60405180910390fd5b60005b82811015610aa05760006040518060400160405280848481518110610a29577f4e487b7100000000000000000000000000000000000000000000000000000000600052603260045260246000fd5b60200260200101518152602001600081525090806001815401808255809150506001900390600052602060002090600202016000909190919091506000820151816000019080519060200190610a80929190610aa5565b506020820151816001015550508080610a98906112ce565b9150506109db565b505050565b828054610ab190611253565b90600052602060002090601f016020900481019282610ad35760008555610b1a565b82601f10610aec57805160ff1916838001178555610b1a565b82800160010185558215610b1a579182015b82811115610b19578251825591602001919060010190610afe565b5b509050610b279190610b2b565b5090565b5b80821115610b44576000816000905550600101610b2c565b5090565b6000610b5b610b56846110fd565b6110cc565b9050808382526020820190508260005b85811015610b9b5781358501610b818882610c37565b845260208401935060208301925050600181019050610b6b565b5050509392505050565b6000610bb8610bb384611129565b6110cc565b905082815260208101848484011115610bd057600080fd5b610bdb848285611211565b509392505050565b600081359050610bf2816113b5565b92915050565b600082601f830112610c0957600080fd5b8135610c19848260208601610b48565b91505092915050565b600081359050610c31816113cc565b92915050565b600082601f830112610c4857600080fd5b8135610c58848260208601610ba5565b91505092915050565b600081359050610c70816113e3565b92915050565b600060208284031215610c8857600080fd5b6000610c9684828501610be3565b91505092915050565b600060208284031215610cb157600080fd5b6000610cbf84828501610c22565b91505092915050565b600060208284031215610cda57600080fd5b600082013567ffffffffffffffff811115610cf457600080fd5b610d0084828501610c37565b91505092915050565b600060208284031215610d1b57600080fd5b6000610d2984828501610c61565b91505092915050565b60008060408385031215610d4557600080fd5b6000610d5385828601610c61565b925050602083013567ffffffffffffffff811115610d7057600080fd5b610d7c85828601610bf8565b9150509250929050565b6000610d928383610f7d565b905092915050565b610da3816111bf565b82525050565b6000610db482611169565b610dbe818561118c565b935083602082028501610dd085611159565b8060005b85811015610e0c5784840389528151610ded8582610d86565b9450610df88361117f565b925060208a01995050600181019050610dd4565b50829750879550505050505092915050565b610e27816111d1565b82525050565b610e36816111dd565b82525050565b610e45816111dd565b82525050565b6000610e5682611174565b610e60818561119d565b9350610e70818560208601611220565b610e79816113a4565b840191505092915050565b6000610e8f82611174565b610e9981856111ae565b9350610ea9818560208601611220565b610eb2816113a4565b840191505092915050565b6000610eca6010836111ae565b91507f4e6f7420726567697374657220796574000000000000000000000000000000006000830152602082019050919050565b6000610f0a6016836111ae565b91507f566f74696e67206e6f74207374617274656420796574000000000000000000006000830152602082019050919050565b6000610f4a6018836111ae565b91507f41646d696e206f6e6c792063616e2061636365737320697400000000000000006000830152602082019050919050565b60006040830160008301518482036000860152610f9a8282610e4b565b9150506020830151610faf6020860182610e2d565b508091505092915050565b6000606082019050610fcf6000830186610d9a565b8181036020830152610fe18185610e84565b9050610ff06040830184610e1e565b949350505050565b600060208201905081810360008301526110128184610da9565b905092915050565b600060208201905081810360008301526110348184610e84565b905092915050565b600060408201905081810360008301526110568185610e84565b90506110656020830184610e3c565b9392505050565b6000602082019050818103600083015261108581610ebd565b9050919050565b600060208201905081810360008301526110a581610efd565b9050919050565b600060208201905081810360008301526110c581610f3d565b9050919050565b6000604051905081810181811067ffffffffffffffff821117156110f3576110f2611375565b5b8060405250919050565b600067ffffffffffffffff82111561111857611117611375565b5b602082029050602081019050919050565b600067ffffffffffffffff82111561114457611143611375565b5b601f19601f8301169050602081019050919050565b6000819050602082019050919050565b600081519050919050565b600081519050919050565b6000602082019050919050565b600082825260208201905092915050565b600082825260208201905092915050565b600082825260208201905092915050565b60006111ca826111e7565b9050919050565b60008115159050919050565b6000819050919050565b600073ffffffffffffffffffffffffffffffffffffffff82169050919050565b6000819050919050565b82818337600083830152505050565b60005b8381101561123e578082015181840152602081019050611223565b8381111561124d576000848401525b50505050565b6000600282049050600182168061126b57607f821691505b6020821081141561127f5761127e611346565b5b50919050565b6000611290826111dd565b91507f7fffffffffffffffffffffffffffffffffffffffffffffffffffffffffffffff8214156112c3576112c2611317565b5b600182019050919050565b60006112d982611207565b91507fffffffffffffffffffffffffffffffffffffffffffffffffffffffffffffffff82141561130c5761130b611317565b5b600182019050919050565b7f4e487b7100000000000000000000000000000000000000000000000000000000600052601160045260246000fd5b7f4e487b7100000000000000000000000000000000000000000000000000000000600052602260045260246000fd5b7f4e487b7100000000000000000000000000000000000000000000000000000000600052604160045260246000fd5b6000601f19601f8301169050919050565b6113be816111bf565b81146113c957600080fd5b50565b6113d5816111dd565b81146113e057600080fd5b50565b6113ec81611207565b81146113f757600080fd5b5056fea26469706673582212202a6d0ffc8f24a096722df0233e7abbe55002261c9606426729dd17e112153d1264736f6c63430008000033",
  "immutableReferences": {},
  "source": "// SPDX-License-Identifier: MIT\npragma solidity >=0.8.0 <0.9.0;\n\ncontract eVoting {\n  \n  enum Status {\n    NOTSTART,\n    ONGOING,\n    END\n  }\n\n  struct Parties {\n    string name;\n    int256 votes;\n  }\n\n  struct User {\n    address id;\n    string name;\n    bool status;\n  }\n\n  Parties[] public party;\n  address owner;\n  Status votingStatus = Status.NOTSTART;\n  mapping(address => User) public users;\n\n\n  event CreatedUser(string _name);\n\n  constructor() {\n    owner = msg.sender;\n  }\n\n  modifier adminOnly {\n    require(msg.sender == owner, \"Admin only can access it\");\n    _;\n  }\n\n  modifier userExist {\n    require(users[msg.sender].id == address(0),\"User already exist\");\n    _;\n  }\n\n  modifier voteVerf {\n    require(users[msg.sender].id != address(0), \"Not register yet\");\n    require(votingStatus == Status.ONGOING, \"Voting not started yet\");\n    _;\n  }\n\n  function createParty(uint number, string[] memory parties) public adminOnly {\n    for(uint i=0; i< number; i++) {\n      party.push(Parties({\n        name: parties[i],\n        votes: 0\n      }));\n    }\n  }\n\n  function getVotings() public view adminOnly returns(Parties[] memory) {\n    return party;\n  }\n\n  function statusVoting(int status) public {\n    if(status == 1 )\n      votingStatus = Status.ONGOING;\n    else if (status == 0) {\n      votingStatus == Status.END;\n    }\n  }\n\nfunction createUser(string memory _name) public payable {\n  // Access the user data directly from the mapping\n  users[msg.sender] = User({\n    name: _name,\n    id: msg.sender,\n    status: false\n  });\n\n  emit CreatedUser(_name);\n}\n\n  function userVoting(uint partyNumber) public voteVerf payable {\n    party[partyNumber].votes++;\n    User storage tmp = users[msg.sender];\n    tmp.status = true;\n  }\n\n}\n",
  "sourcePath": "F:\\Blockchain\\solidity\\eVoting\\contracts\\eVoting.sol",
  "compiler": {
    "name": "solc",
    "version": "0.8.0+commit.c7dfd78e.Emscripten.clang"
  },
  "schemaVersion": "3.4.16",
  "updatedAt": "2024-04-02T09:02:03.195Z",
  "networkType": "ethereum",
  "devdoc": {
    "kind": "dev",
    "methods": {},
    "version": 1
  },
  "userdoc": {
    "kind": "user",
    "methods": {},
    "version": 1
  }
}